:020000040800F2
:1000000000200020D1130008BD040008BF04000830
:1000100000000000000000000000000000000000E0
:10002000000000000000000000000000C104000803
:100030000000000000000000C3040008C504000820
:1000400021140008000000002114000821140008F9
:1000500021140008211400082114000821140008AC
:1000600000000000211400082114000821140008D9
:1000700021140008211400082114000800000000C9
:1000800021140008211400080000000021140008B9
:10009000211400082114000821140008211400086C
:1000A000211400082114000821140008211400085C
:1000B0002114000800000000000000000000000003
:1000C0000448054B10B5834203D0044B002B00D0ED
:1000D000984710BD0C0000200C000020000000001C
:1000E00006480749091A8910CB0F591810B549104D
:1000F00003D0044B002B00D0984710BD0C0000200B
:100100000C0000200000000010B5074C2378002BE5
:1001100009D1FFF7D5FF054B002B02D0044800E0C2
:1001200000BF0123237010BD0C0000200000000060
:1001300024140008054B10B5002B03D004490548D2
:1001400000E000BFFFF7CCFF10BDC046000000007C
:10015000100000202414000870B50D4E0D4DAD1B8D
:10016000AD1006D00024A300F35801349847A542EF
:10017000F9D101F057F9084E084DAD1BAD1006D06E
:100180000024A300F35801349847A542F9D170BD6B
:100190006C1400086C1400086C140008701400083B
:1001A000F0B5830746D0541E002A42D0CEB20200DA
:1001B000032502E01A00013C3BD3531C16702B426E
:1001C000F8D1032C2DD9FF220A40150215432A0429
:1001D00015430F2C16D92700103F3F093E01B446A6
:1001E0001E001A0010366644156055609560D56093
:1001F0001032B242F8D10F2201373F01DB1914400F
:10020000032C0ED9261FB608B700BC461A001F1DC6
:10021000674420C2BA42FCD103220136B6009B19C2
:100220001440002C05D0C9B21C19197001339C422E
:10023000FBD1F0BD14000300C3E7C0460022430811
:100240008B4274D303098B425FD3030A8B4244D39E
:10025000030B8B4228D3030C8B420DD3FF220902E0
:1002600012BA030C8B4202D31212090265D0030B9F
:100270008B4219D300E0090AC30B8B4201D3CB0395
:10028000C01A5241830B8B4201D38B03C01A5241D7
:10029000430B8B4201D34B03C01A5241030B8B42D9
:1002A00001D30B03C01A5241C30A8B4201D3CB02C4
:1002B000C01A5241830A8B4201D38B02C01A5241A9
:1002C000430A8B4201D34B02C01A5241030A8B42AC
:1002D00001D30B02C01A5241CDD2C3098B4201D3C4
:1002E000CB01C01A524183098B4201D38B01C01A42
:1002F000524143098B4201D34B01C01A52410309B9
:100300008B4201D30B01C01A5241C3088B4201D367
:10031000CB00C01A524183088B4201D38B00C01A14
:10032000524143088B4201D34B00C01A5241411A3B
:1003300000D20146524110467047FFE701B5002048
:1003400000F006F802BDC0460029F7D076E77047F6
:100350007047C046F0B589B01422002103A8FFF70A
:100360001FFF184B596980208002014359615A6967
:1003700002400192019A5A69802109030A435A6195
:100380005B690B400293029BC027BF000E4D002209
:100390003900280000F0C6FF012603960B4B04939A
:1003A00000240594902003A9C00500F0F5FE0397F2
:1003B00004960594069403A9280000F0EDFE09B008
:1003C000F0BDC046001002400008004800001210B6
:1003D00010B50E480E4B036082235B004360002380
:1003E0008360E022D200C260036143618022D202B6
:1003F00082613822C261036243628362313AC2621F
:1004000003630833436300F081F910BD2800002026
:100410000030014010B590B02C22002105A8FFF754
:10042000BFFE102200216846FFF7BAFE02240494A2
:10043000012307930F3308930C94A0239B030E937F
:1004400004A800F031FB07230093019400230293DA
:1004500003930121684600F0ABFD10B010BD000011
:1004600030B585B003AC1F231840202318432070FB
:10047000617002ADFA239B00009302232A00210041
:10048000024800F0A9F9287805B030BD2800002006
:1004900010B5052000F06EFE0C210020FFF7E0FFF4
:1004A000002010BD10B500F043FEFFF7B3FFFFF7CB
:1004B00051FFFFF78DFFFFF7EBFFFEE77047FEE709
:1004C0007047704710B500F043FE10BD82B00A4B74
:1004D000996901221143996199690A400092009A31
:1004E000DA69802149050A43DA61DB690B4001932F
:1004F000019B02B07047C0460010024010B588B0A2
:1005000004001422002103A8FFF74AFE2268124BC0
:100510009A4201D008B010BD104B9969802040016B
:10052000014399619A6902400192019A5A698021B6
:1005300089020A435A615B690B400293029BF023D4
:100540000393EE3B049301330693902003A9C00567
:1005500000F022FEDEE7C0460030014000100240FD
:10056000F8B506000C0017001D0033689B68234097
:100570001B1B5A425341BB423BD06B1CF5D000F0D1
:10058000F3FD069BC01AA84201D2002DEDD13268BE
:100590005368E0218B43536082235B0072689A4268
:1005A0000CD080239B01B26A9A4216D05D230122AF
:1005B000F254013B0022F25403201BE0B368802276
:1005C0001202934203D08022D2009342E9D13268D2
:1005D000136840218B431360E3E7326813680649D0
:1005E0000B4013603268116880239B010B4313603A
:1005F000DCE70020F8BDC046FFDFFFFFF8B50700CD
:100600000C0015001E0001E0731C0CD13A689368C1
:100610002340AB4241D0C023DB009C42F4D1002DEB
:10062000F2D1137BF0E700F09FFD069BC01AB042A9
:1006300001D2002EEAD13A685368E0218B4353601F
:1006400082235B007A689A420CD080239B01BA6AAD
:100650009A4216D05D230122FA54013B0022FA543B
:1006600003201BE0BB6880221202934203D0802249
:10067000D2009342E9D13A68136840218B4313605A
:10068000E3E73A68136806490B4013603A6811685B
:1006900080239B010B431360DCE70020F8BDC046BC
:1006A000FFDFFFFF70B582B004000D001600C0210F
:1006B00000922B0000224901FFF7A0FF002818D16B
:1006C00000962B00002280212000FFF749FF002820
:1006D00016D1C02100962B000022C9002000FFF790
:1006E0008DFF00280AD0236E2022134323660320A7
:1006F00004E0236E202213432366032002B070BD62
:10070000236E2022134323660320F7E710B5041E4F
:100710005ED0002383625D33C35C002B4CD05D232D
:100720000222E2542268136840218B431360E3687D
:10073000E022D200934245D90022F02109018B42E8
:1007400005D0E021C9008B4201D00021A162216BBC
:10075000002905D1E021C9008B4236D90223236349
:100760006368A1680B4321690B4361690B438021D6
:100770008900A06901400B43E1690B43216A0B43E7
:100780002168A06A03430B60618B04230B40616AFC
:100790000B43616B0B43E1680B43216813434B60D0
:1007A0002268D3690B490B40D361002323665D3374
:1007B0000122E254002010BD5C330022C254FFF736
:1007C0009DFEACE780225201B7E701232363C7E710
:1007D0000120F0E7FFF7FFFFF0B583B004000E0043
:1007E00001921D005C23C35C012B00D157E15C2307
:1007F0000122C25400F0B8FC07005D23E35CDBB2C9
:100800006268012B14D0822149008A4208D002205C
:100810005D230122E254013B0022E25403B0F0BD0B
:10082000A268002A00D02CE1042B01D00220EFE7BF
:10083000002E00D127E1019B002B00D125E1002DE6
:1008400000D124E15D23E35C042B02D05D2305226B
:10085000E25400232366019A22644622A552023AFA
:10086000A552A663E587A587E3642365E023DB0043
:10087000E2689A4201D8012D23D922685368894938
:100880000B40536023681A68520603D41A6840214B
:100890000A431A60E023DB00E2689A4256D9636893
:1008A000002B01D0012D0AD12368A26B1288DA60D7
:1008B000A36B0233A363E38F013B9BB2E387012564
:1008C00024E02268516880235B010B435360D9E721
:1008D00023689A68D20710D54622A25A92B2002AFB
:1008E0000BD0DB68226C1380236C02332364462216
:1008F000A35A013B9BB2A352012500F035FCC01B5B
:10090000089B984202D3013300D0C2E0E38F9BB230
:10091000002B05D14633E35A9BB2002B00D1A4E053
:1009200023689A689207D3D5E28F92B2002ACFD07B
:10093000012DCDD1A26B1288DA60A36B0233A363C1
:10094000E38F013B9BB2E3870025C1E76368002B7F
:1009500001D0012D0ED1E38F9BB2012B0CD923685E
:10096000A26B1288DA60A36B0233A363E38F023BAE
:100970009BB2E387012546E0A36B1B7822681373C3
:10098000A36B0133A363E38F013B9BB2E387F1E7E2
:10099000E28F92B2012A0BD9A26B1288DA60A36BA4
:1009A0000233A363E38F023B9BB2E38700253DE064
:1009B000A26B12781A73A36B0133A363E38F013B1D
:1009C0009BB2E387002531E02268516880235B01F8
:1009D0000B43536001250BE01B7B226C1370236CCF
:1009E000013323644622A35A013B9BB2A352012543
:1009F00000F0BAFBC01B089B984201D301334AD1D7
:100A0000089B002B49D0E38F9BB2002B04D14633C7
:100A1000E35A9BB2002B28D023689A68920705D529
:100A2000E28F92B2002A01D0012DB1D023689A68DA
:100A3000D207DDD54622A25A92B2002AD8D0462249
:100A4000A25A92B2012AC7D9DB68226C1380236CA8
:100A5000023323644622A35A023B9BB2A352A35AF9
:100A60009BB2012BB0D90125C2E73A0008992000BA
:100A7000FFF718FE002800D1CAE6202323660120D4
:100A8000C6E60220C4E60120C2E60120C0E601203D
:100A9000BEE60320BCE60320BAE60320B8E6022047
:100AA000BCE6C046FFEFFFFF70B582B0041E00D168
:100AB00032E20368DB0726D5AE4B5A680C2313409D
:100AC000042B18D0AB4B5A680C231340082B0ED0C4
:100AD0006368012B3CD0002B51D1A64B1A68A64964
:100AE0000A401A601A68A5490A401A6036E0A14B0C
:100AF0005B68DB03ECD59F4B1B689B0303D56368E6
:100B0000002B00D10BE223689B0773D5994B5B68E0
:100B10000C221A425DD0974B5A680C231340082BC5
:100B200053D0E368002B00D186E0924A136801217C
:100B30000B43136000F018FB05008E4B1B689B07EE
:100B400071D400F011FB401B0228F6D90320E4E128
:100B5000884A116880235B020B4313606368002B93
:100B600025D000F001FB0500824B1B689B03CAD413
:100B700000F0FAFA401B6428F6D90320CDE1052BDA
:100B800009D07C4B1A687C490A401A601A687B4974
:100B90000A401A60E2E7774B19688022D2020A43C2
:100BA0001A601968802252020A431A60D6E700F0E0
:100BB000DBFA05006F4B1B689B03A4D500F0D4FA49
:100BC000401B6428F6D90320A7E16A4B5B68DB036E
:100BD000A7D4684B1B689B0704D5E368012B01D0A1
:100BE00001209AE163490B68F82293432269D200FD
:100BF00013430B6023681B0744D5E369002B2ED0F9
:100C00005C4A536A01210B43536200F0ADFA0500C0
:100C1000584B5B6A9B0735D400F0A6FA401B0228AC
:100C2000F6D9032079E153490B68F82293432269EE
:100C3000D20013430B60DDE74E4A136801218B435A
:100C4000136000F091FA05004A4B1B689B07D1D551
:100C500000F08AFA401B0228F6D903205DE1454ADC
:100C6000536A01218B43536200F07EFA0500414B29
:100C70005B6A9B0706D500F077FA401B0228F6D97D
:100C800003204AE123685B0700D47FE0394BDB692E
:100C9000DB001DD4374AD169802040050143D16172
:100CA000D36903400193019B0125354B1B68DB058C
:100CB00010D5A368012B21D0002B36D12D4B1A6AF9
:100CC00001218A431A621A6A03318A431A621AE0BE
:100CD0000025EAE72A4A116880235B000B43136072
:100CE00000F042FA0600264B1B68DB05E1D400F059
:100CF0003BFA801B6428F6D903200EE11D4A136AD3
:100D000001210B431362A368002B24D000F02CFABE
:100D10000600184B1B6A9B0736D400F025FA801B8F
:100D2000184B9842F5D90320F7E0052B09D0114B59
:100D30001A6A01218A431A621A6A03318A431A62C3
:100D4000E1E70C4B1A6A04210A431A621A6A033952
:100D50000A431A62D7E700F007FA0600054B1B6A40
:100D60009B0711D500F000FA801B064B9842F5D97D
:100D70000320D2E000100240FFFFFEFFFFFFFBFF59
:100D80000070004088130000012D33D02368DB067B
:100D900010D56369012B33D0053351D1644A536BAD
:100DA00004218B435363536BF4318B43A169C90016
:100DB0000B435363236A002B00D1B2E05C4A5168B5
:100DC0000C220A40082A00D18AE0022B4FD0584A50
:100DD000136858490B40136000F0C6F90400544BE7
:100DE0001B689B017AD500F0BFF9001B0228F6D9D9
:100DF000032092E04E4AD3694F490B40D361C5E7C7
:100E00004B4B5A6B04210A435A635A6B03390A430A
:100E10005A6300F0A9F90500454B5B6B9B0706D4AC
:100E200000F0A2F9401B0228F6D9032075E04049E2
:100E30004B6BF8229343A269D20013434B63B9E78B
:100E40003B4B5A6B04210A435A635A6B03398A435A
:100E50005A6300F089F90500354B5B6B9B07A9D5F8
:100E600000F082F9401B0228F6D9032055E0304AF1
:100E7000136830490B40136000F076F905002C4BE5
:100E80001B689B0106D500F06FF9401B0228F6D9BC
:100E9000032042E0264BDA6A0F218A43E16A0A43C3
:100EA000DA625A6825490A40A16A606A01430A4326
:100EB0005A601968802252040A431A6000F054F9FB
:100EC00004001B4B1B689B0106D400F04DF9001B6E
:100ED0000228F6D9032020E000201EE000201CE0BC
:100EE000012B20D0124B5A68D96A80235B02134031
:100EF000606A834201D001200FE00F230B40E16ABA
:100F00008B4201D0012008E0F0239B031A40A36A22
:100F10009A420AD0012000E0012002B070BD0120F9
:100F2000FBE70020F9E70120F7E70020F5E7C046DE
:100F300000100240FFFFFFFEFFFFFFEFFFFFC2FFB9
:100F400030B589B004AA174B180032C832C211005C
:100F500002680A606A46103313CB13C21B68136021
:100F6000114B5A680C231340082B19D1910C0733ED
:100F7000194004A8445C0C49C96A0B406946C95C25
:100F8000D30308D463011B1B9801C01AC0000419C5
:100F9000200209B030BD0548FFF750F96043F8E77B
:100FA0000248F6E73C1400080010024000127A00E4
:100FB00070B504000D00002800D181E0424B1A6892
:100FC000012313408B420BD23F490B68012293430C
:100FD0002B430B600B681A40AA4201D0012070E03D
:100FE00023689A070ED55B0705D5384A5168E02378
:100FF000DB000B435360354A5368F0218B43A168F3
:101000000B4353602368DB072DD56368012B1ED08B
:10101000022B22D02D4A1268920753D52B494A68D9
:101020000320824313434B6000F09EF80600274BD9
:101030005B680C221A4063689B009A4213D000F050
:1010400093F8801B224B9842F1D9032039E01F4AC4
:1010500012689203E2D4012033E01C4A1268920124
:10106000DCD401202DE0184B1A6801231340AB4259
:101070000BD915490B68012293432B430B600B6876
:101080001A40AA4201D001201BE023685B0706D565
:101090000E4A53680F490B40E1680B435360FFF75A
:1010A0004FFF0A4B5A6812090F2313400A4AD35CB8
:1010B000D8400A4B1860002000F012F8002000E031
:1010C000012070BD0120FCE700200240001002401A
:1010D00088130000FFF8FFFF5C14000808000020E0
:1010E00010B504000F4B1978FA208000FFF7A6F81E
:1010F00001000D4B1868FFF7A1F800F04BF900282C
:101100000DD1032C01D901200AE001300022210079
:10111000404200F00DF9054B1C60002000E001206A
:1011200010BDC04600000020080000200400002080
:1011300010B5064A136810210B4313600020FFF717
:10114000CFFFFFF7C3F9002010BDC04600200240CA
:10115000034A1168034B1B785B1813607047C04645
:101160008C00002000000020014B18687047C0462A
:101170008C00002070B50400FFF7F6FF0500631C2B
:1011800002D0044B1B78E418FFF7EEFF401BA0428F
:10119000FAD370BD00000020F0B5C64600B582B09D
:1011A000002338E0032600E00026AE4035003D4332
:1011B0000234A400554EA551554C25684246D443EF
:1011C0002E0026404A68D20302D5424615432E001F
:1011D0004F4D2E606D682E0026404A68920302D55E
:1011E000424615432E004A4D6E60AD682E002640E3
:1011F0004A68D20202D5424615432E00444DAE60E5
:10120000ED682C404A68920202D542462A431400F7
:101210003F4AD46001330A681400DC4071D00125D4
:101220009D402A409046F5D04C68022C01D0122CEB
:101230000ED1DC080834A400275807261E40B6004B
:101240000F22B24097430A69B24016003E4326502F
:1012500002685F0003242600BE40F64332409446F5
:101260004A681440BC406246144304604C68621EE5
:10127000012A03D9112C01D0122C10D184683440DA
:10128000A446CC68BC406246144384604468AC43C6
:101290004A681209012515409D4025434560C468F0
:1012A00026408C68BC403443C4604A68D200B1D543
:1012B000184DAE6901242643AE61AD692C400194FE
:1012C000019C9C08A51CAD00104EAF5903251D4084
:1012D000AD000F26AE40B7439026F605B04200D1D0
:1012E00062E70D4EB04208D00C4EB04207D00C4E13
:1012F000B04200D156E7052657E7012655E70226FA
:1013000053E702B004BC9046F0BDC0460000014067
:10131000000401400010024000040048000800489A
:10132000000C0048002A01D1816270478161FCE70E
:1013300070B5002811DB8308144DC0339B005C5945
:1013400003221040C000FC3216008640B4438901DD
:101350000A40824022435A5170BDC0B20F2303405D
:10136000083B9B0806339B00094A944663445D682A
:1013700003242040C000FF2214008440A5438901BB
:101380001140814029435960E6E7C04600E100E092
:1013900000ED00E001380A4B98420FD8094A50602E
:1013A0000948036A1B021B0AC02109060B4303629A
:1013B0000023936007331360002070470120FCE78F
:1013C000FFFFFF0010E000E000ED00E070470000CC
:1013D0000D4885460D480E490E4A002302E0D458B8
:1013E000C4500433C4188C42F9D30B4A0B4C00236D
:1013F00001E013600432A242FBD3FFF7E7FFFEF7E0
:10140000ABFEFFF74FF8FEE70020002000000020B1
:101410000C000020741400080C0000209000002034
:10142000FEE70000F8B5C046F8BC08BC9E46704711
:0C143000F8B5C046F8BC08BC9E467047EA
:10143C0002030405060708090A0B0C0D0E0F101009
:10144C000102030405060708090A0B0C0D0E0F1008
:10145C000000000000000000010203040607080958
:04146C00350100083E
:041470000901000866
:0C147400010000000400000000127A00DB
:04000005080013D10B
:00000001FF
